{
  "contractName": "Asset",
  "abi": [
    {
      "inputs": [
        {
          "internalType": "string",
          "name": "_name",
          "type": "string"
        }
      ],
      "stateMutability": "nonpayable",
      "type": "constructor"
    },
    {
      "anonymous": false,
      "inputs": [
        {
          "indexed": false,
          "internalType": "string",
          "name": "name",
          "type": "string"
        },
        {
          "indexed": false,
          "internalType": "address",
          "name": "account",
          "type": "address"
        },
        {
          "indexed": false,
          "internalType": "address",
          "name": "custodian",
          "type": "address"
        },
        {
          "indexed": false,
          "internalType": "uint256",
          "name": "timestamp",
          "type": "uint256"
        }
      ],
      "name": "Action",
      "type": "event"
    },
    {
      "inputs": [],
      "name": "custodian",
      "outputs": [
        {
          "internalType": "address",
          "name": "",
          "type": "address"
        }
      ],
      "stateMutability": "view",
      "type": "function",
      "constant": true
    },
    {
      "inputs": [],
      "name": "name",
      "outputs": [
        {
          "internalType": "string",
          "name": "",
          "type": "string"
        }
      ],
      "stateMutability": "view",
      "type": "function",
      "constant": true
    },
    {
      "inputs": [],
      "name": "status",
      "outputs": [
        {
          "internalType": "enum Asset.STATUSES",
          "name": "",
          "type": "uint8"
        }
      ],
      "stateMutability": "view",
      "type": "function",
      "constant": true
    },
    {
      "inputs": [
        {
          "internalType": "address",
          "name": "_to",
          "type": "address"
        }
      ],
      "name": "send",
      "outputs": [],
      "stateMutability": "nonpayable",
      "type": "function"
    },
    {
      "inputs": [],
      "name": "recive",
      "outputs": [],
      "stateMutability": "nonpayable",
      "type": "function"
    }
  ],
  "bytecode": "0x60806040523480156200001157600080fd5b5060405162000d7f38038062000d7f833981810160405281019062000037919062000231565b80600090805190602001906200004f92919062000103565b5033600160006101000a81548173ffffffffffffffffffffffffffffffffffffffff021916908373ffffffffffffffffffffffffffffffffffffffff1602179055506000600160146101000a81548160ff02191690836002811115620000ba57620000b96200046d565b5b02179055507f85bc0605b6ec0e27701499e22eab1c5cbff14b94d451755ad083dc2663b8ddfe333342604051620000f493929190620002cb565b60405180910390a15062000548565b828054620001119062000401565b90600052602060002090601f01602090048101928262000135576000855562000181565b82601f106200015057805160ff191683800117855562000181565b8280016001018555821562000181579182015b828111156200018057825182559160200191906001019062000163565b5b50905062000190919062000194565b5090565b5b80821115620001af57600081600090555060010162000195565b5090565b6000620001ca620001c48462000346565b6200031d565b905082815260208101848484011115620001e957620001e8620004ff565b5b620001f6848285620003cb565b509392505050565b600082601f830112620002165762000215620004fa565b5b815162000228848260208601620001b3565b91505092915050565b6000602082840312156200024a576200024962000509565b5b600082015167ffffffffffffffff8111156200026b576200026a62000504565b5b6200027984828501620001fe565b91505092915050565b6200028d816200038d565b82525050565b6000620002a26006836200037c565b9150620002af826200051f565b602082019050919050565b620002c581620003c1565b82525050565b60006080820190508181036000830152620002e68162000293565b9050620002f7602083018662000282565b62000306604083018562000282565b620003156060830184620002ba565b949350505050565b6000620003296200033c565b905062000337828262000437565b919050565b6000604051905090565b600067ffffffffffffffff821115620003645762000363620004cb565b5b6200036f826200050e565b9050602081019050919050565b600082825260208201905092915050565b60006200039a82620003a1565b9050919050565b600073ffffffffffffffffffffffffffffffffffffffff82169050919050565b6000819050919050565b60005b83811015620003eb578082015181840152602081019050620003ce565b83811115620003fb576000848401525b50505050565b600060028204905060018216806200041a57607f821691505b602082108114156200043157620004306200049c565b5b50919050565b62000442826200050e565b810181811067ffffffffffffffff82111715620004645762000463620004cb565b5b80604052505050565b7f4e487b7100000000000000000000000000000000000000000000000000000000600052602160045260246000fd5b7f4e487b7100000000000000000000000000000000000000000000000000000000600052602260045260246000fd5b7f4e487b7100000000000000000000000000000000000000000000000000000000600052604160045260246000fd5b600080fd5b600080fd5b600080fd5b600080fd5b6000601f19601f8301169050919050565b7f4352454154450000000000000000000000000000000000000000000000000000600082015250565b61082780620005586000396000f3fe608060405234801561001057600080fd5b50600436106100575760003560e01c806306fdde031461005c578063200d2ed21461007a57806335897cad14610098578063375b74c3146100a25780633e58c58c146100c0575b600080fd5b6100646100dc565b6040516100719190610568565b60405180910390f35b61008261016a565b60405161008f919061054d565b60405180910390f35b6100a061017d565b005b6100aa61027f565b6040516100b79190610532565b60405180910390f35b6100da60048036038101906100d59190610459565b6102a5565b005b600080546100e9906106ce565b80601f0160208091040260200160405190810160405280929190818152602001828054610115906106ce565b80156101625780601f1061013757610100808354040283529160200191610162565b820191906000526020600020905b81548152906001019060200180831161014557829003601f168201915b505050505081565b600160149054906101000a900460ff1681565b600160009054906101000a900473ffffffffffffffffffffffffffffffffffffffff1673ffffffffffffffffffffffffffffffffffffffff163373ffffffffffffffffffffffffffffffffffffffff16146101d757600080fd5b600160028111156101eb576101ea610700565b5b600160149054906101000a900460ff16600281111561020d5761020c610700565b5b1461021757600080fd5b6002600160146101000a81548160ff0219169083600281111561023d5761023c610700565b5b02179055507f85bc0605b6ec0e27701499e22eab1c5cbff14b94d451755ad083dc2663b8ddfe333342604051610275939291906105d4565b60405180910390a1565b600160009054906101000a900473ffffffffffffffffffffffffffffffffffffffff1681565b600160009054906101000a900473ffffffffffffffffffffffffffffffffffffffff1673ffffffffffffffffffffffffffffffffffffffff163373ffffffffffffffffffffffffffffffffffffffff16146102ff57600080fd5b600160009054906101000a900473ffffffffffffffffffffffffffffffffffffffff1673ffffffffffffffffffffffffffffffffffffffff168173ffffffffffffffffffffffffffffffffffffffff16141561035a57600080fd5b6001600281111561036e5761036d610700565b5b600160149054906101000a900460ff1660028111156103905761038f610700565b5b141561039b57600080fd5b60018060146101000a81548160ff021916908360028111156103c0576103bf610700565b5b021790555080600160006101000a81548173ffffffffffffffffffffffffffffffffffffffff021916908373ffffffffffffffffffffffffffffffffffffffff1602179055507f85bc0605b6ec0e27701499e22eab1c5cbff14b94d451755ad083dc2663b8ddfe3382426040516104399392919061058a565b60405180910390a150565b600081359050610453816107da565b92915050565b60006020828403121561046f5761046e61075e565b5b600061047d84828501610444565b91505092915050565b61048f8161063a565b82525050565b61049e81610689565b82525050565b60006104af8261061e565b6104b98185610629565b93506104c981856020860161069b565b6104d281610763565b840191505092915050565b60006104ea600483610629565b91506104f582610774565b602082019050919050565b600061050d600783610629565b91506105188261079d565b602082019050919050565b61052c8161067f565b82525050565b60006020820190506105476000830184610486565b92915050565b60006020820190506105626000830184610495565b92915050565b6000602082019050818103600083015261058281846104a4565b905092915050565b600060808201905081810360008301526105a3816104dd565b90506105b26020830186610486565b6105bf6040830185610486565b6105cc6060830184610523565b949350505050565b600060808201905081810360008301526105ed81610500565b90506105fc6020830186610486565b6106096040830185610486565b6106166060830184610523565b949350505050565b600081519050919050565b600082825260208201905092915050565b60006106458261065f565b9050919050565b600081905061065a826107c6565b919050565b600073ffffffffffffffffffffffffffffffffffffffff82169050919050565b6000819050919050565b60006106948261064c565b9050919050565b60005b838110156106b957808201518184015260208101905061069e565b838111156106c8576000848401525b50505050565b600060028204905060018216806106e657607f821691505b602082108114156106fa576106f961072f565b5b50919050565b7f4e487b7100000000000000000000000000000000000000000000000000000000600052602160045260246000fd5b7f4e487b7100000000000000000000000000000000000000000000000000000000600052602260045260246000fd5b600080fd5b6000601f19601f8301169050919050565b7f53454e4400000000000000000000000000000000000000000000000000000000600082015250565b7f5245434549564500000000000000000000000000000000000000000000000000600082015250565b600381106107d7576107d6610700565b5b50565b6107e38161063a565b81146107ee57600080fd5b5056fea26469706673582212201373371dacc199cc6643381c3ca26fcb1532723e55ad2cd62faa30917b6de5b464736f6c63430008060033",
  "immutableReferences": {},
  "source": "// SPDX-License-Identifier: MIT\npragma solidity ^0.8.4;\n\ncontract Asset {\n  string public name;\n  address public custodian;\n  STATUSES public status;\n\n  enum STATUSES {\n    CREATED,\n    SENT,\n    RECEIVED\n  }\n\n  event Action(\n    string name,\n    address account,\n    address custodian,\n    uint timestamp\n  );\n\n  constructor(string memory _name) {\n    // Set name\n    name = _name;\n\n    // Make deployer custodian\n    custodian = msg.sender;\n\n    // Update status to \"CREATED\"\n    status = STATUSES.CREATED;\n\n    // Log history\n    emit Action(\"CREATE\", msg.sender, msg.sender, block.timestamp);\n  }\n\n  function send(address _to) public {\n    // Must be custodian to send\n    require(msg.sender == custodian);\n\n    // Cannot send to self\n    require(_to != custodian);\n\n    // Can't be in \"SENT\" status\n    // Must be \"CREATED\" or \"RECEIVED\"\n    require(status != STATUSES.SENT);\n\n    // Update status to \"SENT\"\n    status = STATUSES.SENT;\n\n    // Make _to new custodian\n    custodian = _to;\n\n    // Log history\n    emit Action(\"SEND\", msg.sender, _to, block.timestamp);\n  }\n\n  function recive() public { // misspelled to avoid conflict with function receive in newer solidity versions\n    // Must be custodian to receive\n    require(msg.sender == custodian);\n\n    // Must be in \"SENT\" status\n    // Cannot be \"CREATED\" or \"RECEIVED\"\n    require(status == STATUSES.SENT);\n\n    // Update status to \"RECEIVED\"\n    status = STATUSES.RECEIVED;\n\n    // Log history\n    emit Action(\"RECEIVE\", msg.sender, msg.sender, block.timestamp);\n  }\n}",
  "sourcePath": "/Users/zed/Desktop/DAPP_UNIVERSITY/NFT_MASTERCLASS/supply_chain/src/contracts/Asset.sol",
  "compiler": {
    "name": "solc",
    "version": "0.8.6+commit.11564f7e.Emscripten.clang"
  },
  "schemaVersion": "3.4.1",
  "updatedAt": "2021-07-28T10:19:49.453Z",
  "networkType": "ethereum",
  "devdoc": {
    "kind": "dev",
    "methods": {},
    "version": 1
  },
  "userdoc": {
    "kind": "user",
    "methods": {},
    "version": 1
  }
}